:020000040000FA
:030000000200D328
:030013000244C0E4
:03001B0002452F6C
:03003B000244BCC0
:030073000244BE86
:10008300021A2400000080FB1200E5B900030200FD
:10009300CDE490F3FF787879058002F0A3D8FCD9FA
:1000A300FA90F876AA82AB839000EB782E790380DE
:1000B30015E493A3AC82AD838A828B83F0A3AA82D7
:1000C300AB838C828D83D8E9D9E71213241200867F
:1000D30075D00075813F7510FF7511F35392FE02C1
:1000E300008B79015392FE2253656E64206368612D
:1000F3006E6E656C00536574206368616E6E656C2B
:100103000052656365697665206E6577206D65735A
:10011300736167650A00706F7274206973202564C8
:100123000A636F6E74656E74206973200053656E85
:10013300642054657374324150206661696C656450
:1001430000466F727761726420746F202564207398
:100153007563636573730A00466F72776172642017
:10016300746F202564206661696C65640A005365B9
:100173006E6420726573756C743A2025640A0045B9
:1001830072726F7220706F72740047657420636FB0
:100193006D6D616E643A20002C77616974696E67D6
:1001A30020666F7220726573756C740A00537461F4
:1001B3007274206977736E2073797374656D2E2E54
:1001C3002E0A000253656E64206C6F67004E6F2029
:1001D3006C6F67006C6F67206C6576656C20657269
:1001E300726F7220696E6672616D65005375636329
:1001F30065737300536574204C6F674C6576656C4B
:100203002073697A65206572726F7200FFEA32505B
:100213006E0E2750FF02000000FFFFFFFF010000EA
:1002230000000000000000000000000000000000CB
:10023300000000000000000000009641203F8D38C0
:10024300384262330A410202010101000807060530
:10025300040302016C696E6B20746F2025642066B1
:1002630061696C65640A004C696E6B205375636346
:100273006573730A0054686973206973207374612A
:1002830074696F6E207465737420646174612C20CB
:100293006D792061646472657373206973202564CA
:1002A3000A0073656E642073746174696F6E2064F1
:1002B3006174610A00256400253032780012F81257
:1002C300F844F844F830313233343536373839416D
:1002D300424344454600286E756C6C20706F696E0E
:1002E30074657229003F3F3F000000807F0000805B
:1002F3003F00000000F9021550B743BA5100002037
:100303004100E7DB2E0000A04010000000080000C1
:10031300000A00000000005392FE22E066701008FD
:10032300A3E066700A08A3E066700408A3E06622EF
:10033300C008C3E096F50808A3E096420808A3E0C6
:1003430096420808A3E0964208A2D265D033E50896
:100353007001D3D00822080808E630E711120B9584
:10036300120371080808C64480C618181822181802
:1003730018E9799EC608CAC608CBC608CCC6C3709E
:10038300207996CACBCC7019798ECBCC7013798631
:10039300CC700EF9802ACA33CACB33CBCC33CC33DF
:1003A3001930E7F2CCCBCA3350147004EA30E00DB5
:1003B300E4CA3ACACB3BCBCC3CCC500209C3E913C9
:1003C300C6CC182313C6CB18C6CA18C6F922120402
:1003D3001120F01430E72B74FFFCFBFA747F8022AA
:1003E300E4FCFBFA7480801AB48008BC00F2BB0002
:1003F300EF800F50EBF9E4C39AFAE49BFBE49CFC17
:10040300E499C6CC18C6CB18C6CA18C6F922E4C9E3
:10041300C608CAC608CBC6D3330308CCC63392F08A
:10042300C3947F402E94184019C9B90704CACBCC92
:10043300225025C309CA33CACB33CBCC33CC33D9EF
:10044300F422F4600DC9CCC313CB13CBCA13CAD99E
:10045300F6CC22E4FCFBFA2214FCFBFA22E6C333BB
:1004630018461846184622E7C33319471947194750
:1004730022181818E6084608700AE608C333700500
:10048300E633F4220822191919E7094709700AE724
:1004930009C3337005E733F4220922E6084608C38B
:1004A300134608336002E633F422E7094709C3130E
:1004B3004709336002E733F42212049E60251204D5
:1004C300AD6020120460700302046A080808E7663E
:1004D30070101819E766700A1819E766700418197E
:1004E300E76622F42212049E601C1204AD60171208
:1004F3000460700712046A7001D322C0D012046A28
:100503007006D0D0B322C32233D0D0501430E0F6DB
:10051300C3E7960809E7960809E7960809E796B33B
:100523002220E0D5E6970809E6970809E697080927
:10053300E697B32212049E601B1204AD60161204E8
:1005430060700712046A600CB322C0D012046A7090
:1005530005D0D022C32233D0D0501330E0EBC3E711
:10056300960809E7960809E7960809E7962220E026
:10057300E4E6970809E6970809E6970809E697224B
:100583000012049E604F1204AD6012E7548066F6B9
:10059300120474701112046A703B090909F4F61805
:1005A300F618F618F622120489701512046008086A
:1005B3000860EAE6447FF618768018E4F618F62217
:1005C300120460601612046A7012E4F608F608F664
:1005D30008E65480F609090918181822EAC0E0EB66
:1005E300C0E0ECC0E0EDC0E0E687F0A4FBACF008AF
:1005F300E687F0A42CFCE435F0FA1809E687F0A4AA
:100603002C4B60027401CA35F0FCE433FB09E68726
:10061300F0D2F7A42CCB35F0FC1908E687F0A42B15
:10062300CC35F0FBE433FD0819E687F0D2E7A42CC0
:100633004ACB35F0CD3400FC09E687F0D2E7A42D90
:10064300CC35F0FDE433FA0918E687F0D2F7A42C91
:10065300CD35F0CA3400FC08E687F0D2E7D2F7A420
:100663002ACC35F07A7E20E70B0ACB33CBCD33CDC2
:10067300CC33CC33CB3350147004ED30E00ED2F1D5
:10068300E4CD3DCDCC3CCC3B5005DA05C2F1EB5477
:100693007FC63308E63392F0FBE73309E733C39AA7
:1006A300502D2B70190C0D4C4D70151806E608C310
:1006B30033700D20F10AA2F013F6E418800B4024E6
:1006C300E4F630F002768018F618F618F68024D394
:1006D3003B14501074FFA2F013F6187680E418F65A
:1006E30018F6800FA2F013F618E63303F618ECF6AB
:1006F30018EDF6D0E0FDD0E0FCD0E0FBD0E0FA222C
:100703001204AD604612049E603DE9687008F61855
:10071300F618F618F622748067F7120737090909E5
:10072300748067F72212049E601D1204AD700519D0
:100733001919801A120474701F120489C37003E616
:10074300673319191940071818182208080874FF85
:10075300F618F618F618F622120489601712046ABE
:10076300702192F01204607019501720F0140808D9
:1007730008090909E7F61819E7F61819E7F6181929
:10078300E7F62212046060E6E869701F0808E624B1
:1007930080F608E436F618547FB47F0CE654806084
:1007A30007F6E418F618F622181822E9C6CC08C68C
:1007B300CD08C6CE08C6CFC0E0E8C0E0EAC0E0EB93
:1007C300C0E009E9F809E7FA09E7FBE6F918E6F8F2
:1007D300C3EC98ED99EE9AEBC2E7F5F0EFC2E7951B
:1007E300F0500E600CEBCFFBEACEFAE9CDF9E8CC82
:1007F300F8EAA2E7D2E7FAEB33FB13F5F0EEA2E750
:10080300D2E7FEEF33FFC5F013A2E730E601B313DF
:10081300C5F0C3C0E0C0F07F00C39BFB605B9418CE
:10082300600C401AD0E023F9D0E0F80209068AF000
:10083300E9486003D2F0E4AFF0FAF9F8803BEB301B
:10084300E40D89F0EA6003D2F0E4AFF0F9CAF8EB03
:1008530030E30D88F0EF6002D2F0AFF0E4CAC9F8DC
:10086300EB54076014FBC3EA13FAE913F9E813F82E
:10087300EF135002D2E0FFDBEDD0E0C0E030E73908
:10088300C3E49FFFF5F0EC98FC42F0ED99FD42F0D4
:10089300EE9AFE42F0D0E0F9D0E0F8E5F0607AE9B4
:1008A30023F9EE20E742D8028067C3EF33FFEC332E
:1008B300FCED33FDEE33FE80EAEC28FCED39FDEE72
:1008C3003AFED0E023F9D0E0F84002801BC3EE13D8
:1008D300FEED13FDEC13FCEF135002D2E0FF08B85A
:1008E30000067F7F74FF802EEF3350178CF020F0CB
:1008F3000260100CBC000C0DBD00080EBE00040805
:10090300E860DFE933E813FFEE2313FE4F4D4C801D
:1009130008E95480FFE4FEFDFCEE33EF33F470048A
:10092300FCFD7E80D0E0FBD0E0FAD0E0F8D0E0CF51
:10093300C618CEC618CDC618CCC6F92212049E70AE
:1009430004181818221204AD700D74FFF61819F666
:100953001819F61819F622E7548066F61204607027
:100963000F12046A70F014F608F608F608F680D140
:1009730012046A700CF608F608768008E6447F8055
:10098300EC12048C700C12047760BFE65480F6E41A
:1009930080BB120477700519191980A5E869700CDA
:1009A300763F18768018F618F6E8F922E6CDC0E00F
:1009B30018ECC0E0E633CD33CDD313F6E719FCE7EB
:1009C300191933CC33C3947F400ECD9D502408E6D0
:1009D3005480F6E418F6800FF4043D14501408E62E
:1009E300447FF6187680E418F618F6D0E0FCD0E0E1
:1009F300FD22CCD313CCFD18E4C6CBC0E018E4C66B
:100A0300CAC0E00808ED08C633E613F618E433C697
:100A130075F003C3CA97CA09CB97CB199C40047DD1
:100A230008802EBD0003020AE816B6FF0506060875
:100A33001618C3CA33CACB33CB33CA27CA09CB3739
:100A4300CB193CC37D08803E187D0820E75CC63384
:100A5300C6CA33CACB33CB33DDF1D5F0EB30E77BFA
:100A6300CA97CA09CB974ACB199C406F4B7025E6AE
:100A730020E0218066187D08C3CA97CA09CB97CBAB
:100A8300199CD3C633C6CA33CACB33CB3350C9DD63
:100A9300E7D5F0E1D3E4C636C608C636C608C6367F
:100AA300C608C636C61818188031C3CA97CA09CBF8
:100AB30097CB199CB34097C633C6CA33CACB33CB43
:100AC30033DD34D5F02EC6A2E0C640C8CA27CA0912
:100AD300CB37194A70BECB3CB480B90808E633085B
:100AE300E633601F181818D0E0FAD0E0FBD0E0FC22
:100AF300D0E0FD22187D08CA27CA09CB37CB193CA1
:100B0300D3808013F618E4B67F11F618B6FF0EF6FD
:100B130018C60470D20808768080CAF618F618F64C
:100B230080C5E4CFC0E0E4CEC0E0E4CDC0E0E4CCD7
:100B3300C0E075F020C3E633F608E633F608E63383
:100B4300F608E633F6181818EC33FCED33FDEE33F4
:100B5300FEEF33FFC3EC9709ED9709EE9709EF9783
:100B6300191919400FFFEC97FC09ED97FD09EE9752
:100B7300FE191906D5F0BEECF709EDF709EEF709F2
:100B8300EFF7191919D0E0FCD0E0FDD0E0FED0E07A
:100B9300FF22181818E4C396F608E496F608E496BC
:100BA300F608E496F622E026F608A3E036F608A354
:100BB300E036F608A3E036F622E0F608A3E0F608EE
:100BC300A3E0F608A3E0F622E6F008A3E6F008A304
:100BD300E6F008A3E6F022E0FAA3E0FBA3E0FCA31F
:100BE300E0FD22EAF0A3EBF0A3ECF0A3EDF022CAC0
:100BF300C0E0E6F0A308DAFAD0E0FA22CAC0E0E0E7
:100C0300A30592F0A30592DAF6D0E0CA22C3E498D2
:100C1300F8E499F9120C518026C3E49AFAE49BFB99
:100C2300E920E7E9120C51E498F8E499F922C3E4C6
:100C330098F8E499F9120C51E498F8E499F9C3E4AB
:100C43009AFAE49BFB22EB20E7CFE920E7E0B90027
:100C530010BB0008E88AF084F8AAF022E4FBC8FA83
:100C630022EB70227B10C833C8C933C9335007C382
:100C73009AC3DBF280069A50012ADBEAC833F4C830
:100C8300C933F4C9FA2275F008E4C833C8C933C9B3
:100C930033C99AC99B5004C92AC93BD5F0ECFBC898
:100CA30033F4C8E4C9FA22600C08C6C313C618C6D5
:100CB30013C6D5E0F422700422600D18C6C333C6F0
:100CC30008C633C6D5E0F41822251010AF08F51076
:100CD300400215118008F51040021511D2AF22C051
:100CE300D0251010AF08F510500205118008F5103B
:100CF30050020511D2AFD0D0222510F58210AF08D3
:100D0300F510400215118008F51040021511D2AFFD
:100D1300851183222510F582E43511F583222510F0
:100D2300F584E43511F58522E4735392FE2510C54D
:100D330082C0E0E51134FFC583C0E0E510C39582AE
:100D430024F910AF088583118582108008858311EB
:100D5300858210D2AFCEF0A3E520F0A37808E60891
:100D6300F0A3DEFAEFF0A3E58124FBF8E608F0A395
:100D7300E608F0A30808E608F0A3E608F0A3158147
:100D83001581D0E0FED0E0F815811581E8C0E0EED2
:100D9300C0E0225392FE851183851082E0A3FEE01A
:100DA300A3F5207808E0A3F608DFFAE0A3FFE0A3A9
:100DB300C0E0E0A3C0E0E0A3C0E0E0A3C0E010AF68
:100DC300088582108583118008858210858311D25E
:100DD300AFD083D0825392FE22E584F0A3E585F061
:100DE30022E0A3F584E0F58522740280027401C039
:100DF300E0F404120CFCD0E0120BF2227402800225
:100E03007401C0E0F404120CFCD0E0120BFF22C00A
:100E130082C08374FE120CCC43FE0143FE02D290C7
:100E2300D291438F0885108285118374AA5392FE51
:100E3300F0A3E4F0851082851183E07004C2AF80D3
:100E4300FE7402120CE2D083D0822253CBEFC2D8BD
:100E530043CB0475F00DEAA4F5CDE5CB54FC440275
:100E6300F5CB43CB10A2D850FC53CBEFC2D853924F
:100E7300FE2274F8120D2D74FE120CFC120DDC8C84
:100E8300828D838A848B850592A3A3A3A3A3A3A3A3
:100E9300E0F8607C8A848B85A3A3A3A3A3A3A3A365
:100EA300E0F970327CFF7DF37A017900122DF905A8
:100EB3009290F3FFE0858284858385A3A3A3A3A3F4
:100EC300A3A3A3F00592A3A3A3A3A3A3A37401F0D5
:100ED3007A767BF880357401697035E8C3940240F3
:100EE3002F8A848B85A3A3A3A3A3A3A3A3A3E09087
:100EF300F3FFF07CFF7DF37A007900122DF9A3A3B1
:100F0300A3A3A3A3A3E4F07A837BF8790212134F7C
:100F13008510828511835392FE120DE47402120C24
:100F2300E27F01020D9674F8120D2D74FE120CFC73
:100F3300120DDC7584017585F4858482858583E4CF
:100F43005392FEF0A3F00592A3A3A3E584B41F0478
:100F5300E58564F470E3059290F4017417F0A374CB
:100F630044F090F4047494F0A37443F090F4077481
:100F73009BF0A37414F090F40A7493F0A37444F0F8
:100F830090F40D7475F0A3740EF090F4107448F09F
:100F9300A37415F0851082851183120DE474021277
:100FA3000CE27F01020D96C008C00912423EEA4BD3
:100FB300600579001210211233B3E9640170EC1259
:100FC3001285A2924006639001120FE3A29340DBC5
:100FD300639002120FE380D3120CE27F02020D969C
:100FE300C082C0831233B3E990F797F090F796F07D
:100FF30090F7957402F090F794E4F090F79CF090DA
:10100300F79B04F0790E7A947BF7124281E9600929
:101013007ABB7BF8790012134FD083D0822274F508
:10102300120D2D74FE120CFC120DDCEAFEEBFF898F
:10103300081233B3E9F88E828F83A3E0686049799D
:101043000EEEFAEFFB124281E98E828F83A3A3A3F4
:10105300A37024E0F50A750B00780A120DEC7CCF1F
:101063007DF87A147BF6124D8D7402120CE27A1419
:101073007BF6790202126FE0F50A750B00780A120B
:101083000DEC7CE67DF880DA8E828F83E0F9C394E1
:101093000A400302126974016860030211B3E50890
:1010A3007003021147E975F003A4F8A9F07401284D
:1010B300F58274F439F583E0F8A3E0F9E8497003A5
:1010C3000212727C947DF7EEFAEFFB888289831219
:1010D3000D2B90F79BE070030212728E828F83E0D8
:1010E30090F794F090F7997401F0A3F07A8F7BF85E
:1010F30012492090F794E0F50A750B00780A120D57
:10110300EC7CA47DF87A147BF6124D8D7402120CDC
:10111300E27A147BF612492090F799E0F50A7401FC
:10112300650A600FAA0A7B00120318A3E0FA7B008A
:1011330012031890F79BE0FC7D007A9C7BF7124921
:10114300C80212727A8F7BF8124920E0F50A750BF8
:1011530000780A120DEC7CA47DF87A147BF6124D0C
:101163008D7402120CE27A147BF61249208E828F60
:1011730083A3A3A3A3A3E0F50A7401650A6018AAD5
:101183000A7B001203188E828F83A3A3A3A3A3A3B6
:10119300E0FA7B001203188E828F83A3A3A3A3A379
:1011A300A3A3E0FC7D00EE2408FAEF3400FB808E5D
:1011B300E975F003A4F8A9F0740128F58274F439F1
:1011C300F583E0F8A3E0F9E849700302127290F79F
:1011D3009BE4F07C947DF7EEFAEFFB8E828F83E045
:1011E30075F003A4F885F009A909740128F584743E
:1011F300F439F5850592E0F582A3E0F583059212B3
:101203000D2B8E828F83E090F794F08E828F83A3D1
:10121300A3E090F795F01233B3E9A3F01233B3E9E7
:10122300A3F090F79BE06047790E7A947BF7124224
:1012330081E9F50A750B00780A120DEC7CFC7DF848
:101243007A147BF6124D8D7402120CE21233B3E959
:101253006401701B7A147BF6124E1EEAFCEBFD7AD6
:10126300147BF60211417A0D7BF9790012134F8535
:101273001082851183120DE47402120CE27F0402C2
:101283000D9674F7120D2D74EB120CCC7C147D00AB
:10129300851082851183AA82AB83124AB3EAFE606A
:1012A3007B7A187BF9124920EEF9AA82AB831249A3
:1012B300397A267BF91249207401120D17E090F751
:1012C30081F090F7837401F090F782F01233B3E961
:1012D30090F784F0851082851183E090F780F07495
:1012E300FD2E90F787F07402120D17E0F5087509CB
:1012F300007808120DEC7405120D17AC82AD837AD9
:10130300887BF7124C247402120CE290F784E06499
:1013130001700979017A807BF71210217415020F8D
:10132300DB120E127A007B00122B9B1246F57C0017
:101333007D007A087903122DF9C290C2917A3B7B22
:10134300F9124920120F29120FAA80FE74F5120D0B
:101353002D74FE120CFC120DDC89088A848B859097
:10136300F951E0C39508500302148890F612E0FE89
:10137300A3E0FF124E1E8A0A8B0BEE250AF8EF3507
:101383000BF9E8240108E93400F9C3E894F5E9947A
:10139300015003021432AA84AB85124E1E8A0A8BB3
:1013A3000BAC0AAD0B741E2CF58274F43DF58380EF
:1013B30009EC24010CED3400FDA3E06009C3EC94B7
:1013C300F4ED940140EB74F46C700374016D7008D8
:1013D30090F612E4F0A38056EC24010CED3400FDEA
:1013E300C3EC94F4ED9401503B781E79F4E82CFAA5
:1013F300E93DFB74F4C39CFE74019DFF8A828B83D9
:10140300E088828983F08A828B83A3AA82AB838854
:10141300828983A3A882A983EE24FF1EEF34FFFFF2
:10142300EE4F70D890F612C3E09CF0A3E09DF0AAB3
:1014330084AB85124E1EEA2401F50AEB3400F50B4A
:10144300780A120DECAC84AD8590F612E0241EFAF6
:10145300A3E034F4FB124C247402120CE2AA84AB12
:1014630085124E1EEA2401F8EB3400F990F612E0DF
:1014730028F0A3E039F01233B3E964017007AA84BA
:10148300AB85124920851082851183120DE4740205
:10149300120CE27F04020D9674F5120D2D74FE12E8
:1014A3000CFC120DDC8C828D83A3A3A3A3A3A3A3A3
:1014B3008582088583098C828D83A3A3A3A3A3A319
:1014C300A3A3AE82AF8390F612E0F8A3E0F9E84954
:1014D300602D059290F612120DFF7C1E7DF4EEFA3C
:1014E300EFFB124C247402120CE290F612E0F8A304
:1014F300E0E8850882850983F07A527BF9802E75AE
:101503000A06750B00780A120DEC7C5B7DF9EEFA86
:10151300EFFB124C247402120CE2EEFAEFFB124EB4
:101523001EEA850882850983F07A5B7BF9790212CA
:10153300134F851082851183120DE47402120CE29D
:101543007F04020D9674F7120D2D74FE120CFC121B
:101553000DDC8C848D858A828B83A3A3A3A3A3A391
:10156300A3E0F870067A627BF9807A8A828B83A380
:10157300A3A3A3A3A3A3A3E0702190F951E08584BF
:1015830082858583A3A3A3A3A3A3A3A3F00592A307
:10159300A3A3A3A3A3A37401F0804FE8C3940240C1
:1015A300408A828B83A3A3A3A3A3A3A3A3A3E090B3
:1015B300F951F07508077509007808120DEC7C7A6B
:1015C3007DF9E5842408FAE5853400FB124C247484
:1015D30002120CE20592A3A3A3A3A3A3A3740780FF
:1015E300B77A827BF9790012134F851082851183B4
:1015F3005392FE120DE47402120CE27F02020D9666
:1016030074F5120D2D43B90243A90243A90153B93D
:10161300FE53A9F753A9FB43B90843B90453B9EFE0
:1016230053A9EF53B9DF53A9DF75082A7509007869
:1016330008120DEC7C007D007A797BF6124D247440
:1016430002120CE290DF36E054EF64016004C2AF93
:1016530080FEA3E0C394035004C2AF80FE53BEFBDD
:10166300E5BEA2E650FA53C6BF43BE0474F6F5D5F1
:1016730075D4A990DF13743CF0A37414F090DF02C7
:101683007427F090DF047405F090DF2E748EF090D1
:10169300DF257409F090DF07740CF0A3E4F0A37462
:1016A30010F0A374A7F0A37462F0A3742DF0A374D5
:1016B3003BF0A37473F0A37422F0A374F8F0A3E4D3
:1016C300F090DF15741DF0A314F0A374F6F0A3E4F7
:1016D300F0A374B0F0A374B6F0A37410F0A374EA8B
:1016E300F0A3742AF0A37480F0A3741FF090DF2397
:1016F3007488F0A37431F090F6787402F0790012D4
:101703001F8D7E007F0075E102750A1590DF3CE0B6
:10171300545070327508048E09E5A8F50BC2AF7AF0
:10172300107B00120E4EE50BA2E792AFE5A8A808C6
:10173300A909E824FFF508E934FFF509E84970D958
:10174300150AE50A70C67A10EEC333FEEF33FF9035
:10175300DF3AE0A2E0E433F8EE48FE1AEA70E974F7
:10176300804EF5BCEFF5BC5391EF75E10490DF3B80
:10177300E0640170F875D68175D1FE759B0075E93B
:10178300EF90F6A57434F0A3E4F090F6A774E2F0BA
:10179300A37404F0439A01D2AFFF020D96C082C036
:1017A30083E5E9A2E440105392FE90DF3BE0640D31
:1017B3006005E064017004D2F08002C2F0A2F0D0B0
:1017C30083D0825392FE2274F2120D2D890E750876
:1017D3000090F678E064017004C2AF80FE5391EF8D
:1017E30075E10490DF3BE0640170F875D68175D133
:1017F300FE759B0075E9EF75D68175E104E0640120
:1018030070FB75D1FEEBF50C90F6A9F0EAF509A390
:10181300F0A374DFF0A374D9F0A37420F0A3742AA7
:10182300F0A37413F0A37441F0E9701243D6017569
:10183300E103E5E9A2E450FA75E9EF02197C7401CA
:10184300650E6004C2AF80FE90F6B174040218F511
:101853005391EF75E10490DF3BE0640170F875D6B6
:101863008175D1FE759B0075E9EF43B404E5BC5463
:101873000F04F50D90F6A7E0FAA3E0FB8A0A8B0BA1
:101883007404780A120CAAAE0AAF0BEA4B6025E582
:10189300A8F50AC2AF7A107B00120E4EE50AA2E742
:1018A30092AFE5A8EEF8EFF9E824FF1EE934FFFF55
:1018B300E84970DB150DE50D70BA90F6B1E014F050
:1018C30075D68175E10490DF3BE0640170F875D152
:1018D300FEE50C90F6A9F0E509A3F0A374DFF0A3ED
:1018E30074D9F0A37420F0A3742AF0A37413F0A3A3
:1018F3007441F043D60175E10290DF3BE0640D7063
:10190300F8750A1590DF3CE05450702F7E047F0079
:10191300E5A8F50BC2AF7A107B00120E4EE50BA2C1
:10192300E792AFE5A8EEF8EFF9E824FF1EE934FFEC
:10193300FFE84970DB150AE50A70C975E10390DF1A
:101943003BE0640D6027750AA0750B17780A120D2A
:10195300EC750A24750B00780A120DEC90F9A312AA
:101963000BDA121DF77404120CE202183B90F6B165
:10197300E060030218537508015391EF75E1049079
:10198300DF3BE0640170F875D68175D1FE759B006D
:1019930075E9EF90F678E06403704F90F6A974DF71
:1019A300F0A374D9F074F6A3F0A37479F0A3748050
:1019B300F0A3742AF0A37413F0A37411F075D68105
:1019C300750A28750B00780A120DEC7C007D007AED
:1019D300797BF6124D247402120CE243D601759BF7
:1019E3000075E9EF75E102439110A9087F07020D25
:1019F3009674F8120D2D74FE120CFC120DDC8A8203
:101A03008B83059290F679742A120BFF85108285D9
:101A130011830592120DE47402120CE27F01020D90
:101A230096C0E0C0D0C092E8C0E0E9C0E0EAC0E000
:101A3300EBC0E0ECC0E0EDC0E0EEC0E0C008C009E0
:101A4300C082C083C0F0A2AFE433FED2AF5392FE94
:101A530090F678E064036004C2AF80FEE5E9A2E497
:101A63004003021AFBE5E9A2E64003021AFB75E90B
:101A7300EF75E9BF759B005391EF75E10490DF3B70
:101A8300E0640170F875D68175D1FE759B0075E928
:101A9300EF7508287509007808120DEC7C007D00AD
:101AA3007A797BF6124D247402120CE290F6A97433
:101AB300DFF0A374D9F074F6A3F0A37479F0A374E0
:101AC30080F0A3742AF0A37413F0A37411F075D6F5
:101AD300817808120DEC7C007D007A797BF6124D3B
:101AE300247402120CE243D601759B0075E9EF756D
:101AF300E102439110021BC775E9EF759B0075085E
:101B0300027509007808120DEC90F679E004F87478
:101B13007928FC74F63400FD7AA17BF6124C7874B4
:101B230002120CE2E0FA90F6A2E0A2E7507BEA246C
:101B330001F8E43400F9E89429E99400C365D0334B
:101B43005067EAC39405406190F6B2E060197800EB
:101B530090F67AE0F990F9A2E06970010874FF69E0
:101B63006005740168704290F6A1E0F508C39480A3
:101B73004012A80879FF7A027B00120C49E824B7C7
:101B8300F8E98008E508C31324B7F8E434FFF9C380
:101B9300E89480E994FFA2D265D03350027880E8BC
:101BA300F0A3E0C2E7F01230657508287808120D3B
:101BB300EC7C007D007A797BF6124D247402120CC2
:101BC300E243D601EEA2E092AFD0F0D083D082D030
:101BD30009D008D0E0FED0E0FDD0E0FCD0E0FBD09F
:101BE300E0FAD0E0F9D0E0F8D092D0D0D0E032C023
:101BF30082C0835392FE90F678E064016033A2AF13
:101C0300E433F8C2AFE06403701A5391EF75E10453
:101C130090DF3BE0640170F875D68175D1FE759B4A
:101C23000075E9EF90F6787401F0E8A2E092AFE571
:101C3300A8021D21C082C083E5C6A2E65004C2AF3C
:101C430080FE5392FE90F678E06401701F90DF1CD3
:101C530074EAF0A3742AF0A37480F090F678740207
:101C6300F075E10490DF3BE0640170F8021D21434D
:101C7300B404A9BC5392FE2274F7120D2D90F6788A
:101C8300E064017004C2AF80FEE064036052740339
:101C9300F090F6A974DFF0A374D9F074F6A3F0A35F
:101CA3007479F0A37480F0A3742AF0A37413F0A3DF
:101CB3007411F075D6817508287509007808120D1E
:101CC300EC7C007D007A797BF6124D247402120CB1
:101CD300E243D601759B0075E9EF75E1024391106C
:101CE300022021C082C0835392FE90F678E0640103
:101CF3007004C2AF80FEE0640370205391EF75E17E
:101D03000490DF3BE0640170F875D68175D1FE75F0
:101D13009B0075E9EF90F6787402F08001F0D083B0
:101D2300D0822274F6120D2D8A088B09EA450960C8
:101D33003B7E1F7F00E5A8F50AC2AF7A107B001235
:101D43000E4EE50AA2E792AFE5A8EEF8EFF9E82414
:101D5300FF1EE934FFFFE84970DBE50824FFF508BF
:101D6300E50934FFF509E508450970C57F03020D50
:101D73009674F6120D2D90F6A5E0F508A3E0F5098B
:101D8300E5A8F8C2AF90F6A47401F0E8A2E792AF19
:101D9300E5A8E508450960447E1F7F00E5A8F50A2C
:101DA300C2AF7A107B00120E4EE50AA2E792AFE5AE
:101DB300A890F6A3E07010EEF8EFF9E824FF1EE90F
:101DC30034FFFFE84970D5E07012E50824FFF508F9
:101DD300E50934FFF509E508450970BCE5A8F8C233
:101DE300AF90F6A3E4F090F6A4F0E8A2E792AFE593
:101DF300A8021D6F74F1120D2D74FE120CFC120D4E
:101E0300DC8A0C8B0D8C0E8D0F7411120D17E0F5FF
:101E130008A3E0F5097413120D17E0F584A3E0F5A8
:101E230085C200E50C450D450E450F60487E1F7FBA
:101E330000E5A8F50AC2AF7A107B00120E4EE50A40
:101E4300A2E792AFE5A8E5844585600D8584828588
:101E53008583120D2B92004010EEF8EFF9E824FF72
:101E63001EE934FFFFE84970C890F9A7780C120BFC
:101E7300A9A20050AE85080A85090B7404780A12DA
:101E83000CAAAE0AAF0BA200403EE5084509603834
:101E9300E5A8F508C2AF7A107B00120E4EE508A242
:101EA300E792AFE5A8E5844585600D858482858545
:101EB30083120D2B92004010EEF8EFF9E824FF1E79
:101EC300E934FFFFE84970C8A200851082851183B9
:101ED300120DE47402120CE27F08020D96C082C058
:101EE300835392FE90F6A4E0600690F6A37401F08B
:101EF300021D2174F7120D2D90F678E0640360043F
:101F0300C2AF80FE75081590DF3CE05450702F7E01
:101F1300047F00E5A8F509C2AF7A107B00120E4ECC
:101F2300E509A2E792AFE5A8EEF8EFF9E824FF1E72
:101F3300E934FFFFE84970DB1508E50870C990DF55
:101F43003AE0F508C394804012A80879FF7A027B2F
:101F530000120C49E824B7F8E98008E508C3132404
:101F6300B7F8E434FFF9C3E89480E994FFA2D2659B
:101F7300D03350027880E8F9022021C082C0835315
:101F830092FE90F678E0F9021D2174F7120D2DE907
:101F9300FEC394044004C2AF80FE5391EF75E10485
:101FA30090DF3BE0640170F875D68175D1FE759BB7
:101FB3000075E9EF8E08749B2508F58274F93400E7
:101FC300F583E090DF06F090F678E06403704F90BD
:101FD300F6A974DFF0A374D9F074F6A3F0A37479AF
:101FE300F0A37480F0A3742AF0A37413F0A3741104
:101FF300F075D6817508287509007808120DEC7CF8
:10200300007D007A797BF6124D247402120CE243B0
:10201300D601759B0075E9EF75E1024391107F02CC
:10202300020D9674F7120D2DE9FEC394034004C20A
:10203300AF80FE5391EF75E10490DF3BE0640170E4
:10204300F875D68175D1FE759B0075E9EF8E08741E
:102053009F2508F58274F93400F583E090DF2EF0B4
:1020630090F678E06403704F90F6A974DFF0A374E0
:10207300D9F074F6A3F0A37479F0A37480F0A37479
:102083002AF0A37413F0A37411F075D68175082890
:102093007509007808120DEC7C007D007A797BF6D7
:1020A300124D247402120CE243D601759B0075E9AC
:1020B300EF75E102439110022021C082C0838A821E
:1020C3008B835392FEE0F874FF68700479018010EB
:1020D300E890DF05F08A828B83E090F9A2F0790023
:1020E300021D21C082C0835392FE90F9A2E0F470D6
:1020F30004C2AF80FE90F6B27401F090DF03740760
:10210300021D2074F7120D2D74FE120CFC120DDC4F
:102113008A848B8575081C7509007808120DEC7C80
:10212300007D007AAC7BF9124D247402120CE2900C
:10213300F9AC7403F0A3743DF0A37420F0A374010D
:10214300F0123368AA84AB85122F461227F5123397
:102153005E124172AA84AB851236961240F9123888
:10216300AC12423490F9C0E0702D7402F0A304F075
:1021730090F9C5743FF0A3F0A374FFF075080178DC
:1021830008120DEC12344CEAFCEBFD7AC27BF91217
:102193004C247402120CE27900851082851183802D
:1021A300098510828511835392FE120DE474021285
:1021B3000CE27F02020D9674F7120D2D74FE120CC1
:1021C300FC120DDC7508007584AB7585F985848276
:1021D3008585835392FEA3A3A3A3A3E06402701394
:1021E30005080592A3A3A3A3A3A3A3A3E508C394EC
:1021F3000340DA7403650870067A007B008021755A
:10220300090074037808120CB974B02508F58274B8
:10221300F93509F583AA82AB83122226AA82AB83FE
:102223000221A474F8120D2D74FE120CFC120DDCA5
:102233008A828B83A3A3A3A3A3A3E4F08A828B83C1
:102243007402F090F9AFE08A828B83A3A3A3A3A3C4
:10225300A3A3F080035392FE90F9AFE004F0E0F8FB
:1022630060F374FF6860EEE8F97582B07583F978FE
:1022730003E0640270138582848583850592A3A39A
:10228300A3A3A3A3A3E06960CC5392FEA3A3A3A338
:10229300A3A3A3A318E870D9851082851183120D17
:1022A300E47402120CE27F01020D96C082C0838A9D
:1022B300828B83E45392FEF0D083D0822274F71290
:1022C3000D2D74FE120CFC120DDC7582B07583F9B2
:1022D3007800E06402703A8582848583850592A341
:1022E300A3A3A3A3A3A3E0697027E8FC8C08750943
:1022F3000074037808120CB974B02508F58274F9D8
:102303003509F5830592E064027018AA82AB8380D5
:1023130016085392FEA3A3A3A3A3A3A3A3E8C39462
:102323000340AF7A007B0002219C74F5120D2D74DB
:10233300FE120CFC120DDC8A0A8B0BE9FF7584B0CC
:102343007585F97E02439201E064027040750801CD
:1023530075090005927808120DECAC0AAD0BE58403
:102363002402FAE5853400FB124BBE7402120CE220
:102373008B09EA45097016858482858583A3A3A307
:10238300A3A3A3E06F7006AA84AB858013439201D5
:10239300A3A3A3A3A3A3A3A31EEE70A97A007B0008
:1023A300022708C082C083E98A828B835392FE602E
:1023B30001A3A3A3A3A3A3E0F9E960078A828B8304
:1023C300E0700479028008E9C3942040F6790002A2
:1023D30022BB74F3120D2D74FE120CFC120DDC8C57
:1023E3000C8D0D7584B07585F98A828B83A3A3A3A5
:1023F300E0543FFF7E038A828B83A3A385820A85F1
:10240300830B439201E0640270588584828585833F
:102413000592A3A3A3A3A3E06F7047743F6F602843
:102423007508017509007808120DECAC0AAD0BE5CF
:10243300842402FAE5853400FB124BBE7402120CAD
:10244300E28B09EA4509701A0592A3A3A3A3A3A3E8
:10245300A3E0850C82850D830592F0121EE07901BD
:102463008011439201A3A3A3A3A3A3A3A31EEE706E
:102473009179008510828511835392FE120DE474C5
:1024830002120CE27F06020D9674F1120D2D74FEFA
:10249300120CFC120DDC74FE120CCCE9FE8A0C8BC0
:1024A3000D7584B07585F9750802750900780812F1
:1024B3000DEC7C007D007402120D17AA82AB83120F
:1024C3004D247402120CE27F02850C82850D83A3D6
:1024D300A385820E85830FE50C65847004E50D6585
:1024E300857003022586439201E06402600302259E
:1024F300868584828585830592A3A3A3A3A385826E
:102503000A85830BE0F8C3943E507874016E7027FC
:1025130090F9ADE0C398506BC3E498F895E0F98562
:102523001082851183E58228F8E58339F9E8243D93
:10253300F582E934008047750801750900780812AF
:102543000DECAC0EAD0FE5842402FAE5853400FBF7
:10255300124BBE7402120CE28B09EA450970248502
:102563000A82850B83E0F8851082851183E5822832
:10257300F8E5833400F9E824E0F582E934FFF583D4
:102583007401F0439201A3A3A3A3A3A3A3A31FEFE7
:1025930060030224DA790078008510828511835361
:1025A30092FEE0704974026E7006742028F9804B25
:1025B300743DC398F990F9AEE0F8E9C398404D90A3
:1025C300F9ADE0697003E014F0E9850C82850D83B1
:1025D300A3A3A3A3A3F07402120CE28510828511B6
:1025E30083120DE47402120CE27F08020D9608A315
:1025F300E8C3940240A974026E70BA90F9ADE0C3C7
:10260300994009A3E0C39950C0E980BC790080B91F
:1026130074F5120D2D74FE120CFC120DDC8A848BE2
:1026230085E9FFEDFE79028C0AE584250AF582E54A
:10263300853400F583A3A3A3A3A3A3E0A2E7504695
:102643008E0AE584250AF582E5853400F583A3A384
:10265300A3A3A3A3E06F702C750A01750B00780A7E
:10266300120DEC1233D5EAFCEBFD0592A3AA84AB61
:1026730085124BBE7402120CE28B0BEA450B7004FD
:1026830079008002790185108285118302271174F4
:10269300F5120D2D74FE120CFC120DDC8A0A8B0B45
:1026A300E9FF7584B07585F97E03439201E0640206
:1026B300704075080175090005927808120DECE564
:1026C300842402FCE5853400FDAA0AAB0B124BBE41
:1026D3007402120CE28B09EA45097016858482851F
:1026E3008583A3A3A3A3A3A3E06F7006AA84AB85EA
:1026F3008013439201A3A3A3A3A3A3A3A31EEE70DA
:10270300A97A007B008510828511835392FE120DF6
:10271300E47402120CE27F04020D9674F7120D2D7D
:1027230074FE120CFC120DDC8C848D85E9FE8E0880
:102733007509007808120DECEAFCEBFDAA84AB8561
:10274300124C787402120CE2EE24FE600624FE6042
:10275300168026858482858583E0F8A3E0F9E80561
:1027630092F0A3E9F08012858482858583120BDAC7
:10277300858482858583120BE60221A474F7120DEA
:102783002D74FE120CFC120DDC74FA120CCC8A822E
:102793008B838C848D85E9FE24FE600624FE601AFB
:1027A3008028E0F8A3E0F9851082851183E8F0A37F
:1027B300E9F08510828511838010120BDA740212FE
:1027C3000D17120BE67402120D17AC82AD838E083F
:1027D3007509007808120DECAA84AB85124C787445
:1027E30002120CE27406120CE202219C790253924B
:1027F300FE2274F7120D2D7508587509007808121A
:102803000DEC7C007D007AB37BF6124D247402122A
:102813000CE27808120DEC7C007D007A0B7BF7123A
:102823004D247402120CE27F02020D9674F6120D0F
:102833002D74FE120CFC120DDCE9FC780079007A91
:10284300007B007F0074016C70087582B37583F69A
:10285300800675820B7583F77D037E005392FEE03D
:10286300602374016C702A0FE06404602485828401
:102873008583850592A3E0F508C39D5014A882A91A
:1028830083AD08800C74026CAA82AB8370030229A7
:102893001B0EE582242CF582E5833400F583EEC319
:1028A300940240B8EA4B7064E84970067A007B00F2
:1028B3008066E8FAE9FB8A848B85439201A3E0F5FD
:1028C3000974016C703A78B379F6A2AFE433F50A70
:1028D300C2AF7F02888289835392FEE0600EA3E039
:1028E300F508E509C395085003E014F0E8242CF833
:1028F300E93400F91FEF70DCE50AA2E092AFE5A826
:10290300EE8584828585835392FE800B74012F8A22
:10291300828B835392FEA3F0851082851183539299
:10292300FE120DE47402120CE27F03020D9674F89A
:10293300120D2D74FE120CFC120DDC740169703F34
:102943007582B37583F6A2AFE433FCC2AF7B025347
:1029530092FEE060138582848583850592A3E0F867
:10296300EAC3985003E014F0E582242CF582E58352
:102973003400F5831BEB70D7ECA2E092AFE5A8859A
:1029830010828511835392FE120DE47402120CE23D
:102993007F01020D9674F1120D2D74FE120CFC12C0
:1029A3000DDC74F6120CCC7407120D17E9F08510C8
:1029B30082851183EAF0A3EBF07406120D17ECF095
:1029C3007402120D17E4F0A3F0F50EF50F74041260
:1029D3000D17E4F0A3F07408120D17E4F0A3F074DC
:1029E30007120D17E06401702D750CB3750DF67F9A
:1029F30003851082851183E0F584A3E0F5850592B4
:102A0300E0F87401687039A3E0F91222C08A0E8BD2
:102A13000FEA450F70077A007B00022B808A828BB6
:102A230083A3A3A3A3A3E0FE8A848B850592A3A318
:102A33007408120D17E5840592F0A3E585F080066E
:102A4300E870D3A3E0FE7406120D175392FEE06400
:102A530001700575080180028F08750902A2AFE4B1
:102A630033F8C2AF850C82850D83E06508600302ED
:102A73002B5A7404F0E8A2E092AFE5A8A3A3A3A3A2
:102A8300A3E0543F6E6003022B4D851082851183B2
:102A9300E0F584A3E0F5850592E064017025743FB9
:102AA3006E7008850E84850F858008850C84850DDE
:102AB30085A3A3A3A37404120D17E5840592F0A3C1
:102AC300E585F0750A01750B005392FE780A120D25
:102AD300EC740A120D17E0FCA3E0FD7406120D1747
:102AE300E0FAA3E0FB124BBE7402120CE2851082E3
:102AF300851183E0F584A3E0F5850592E06003EAA0
:102B03007048850C82850D830592A3A882A983E072
:102B1300C39F50367402120D17E0FAA3E0FBEA4B91
:102B230060117402120D17E0F584A3E0F585E50842
:102B33000592F0888289835392FEE0FF7402120D9E
:102B430017E50CF0A3E50DF08014850C82850D8349
:102B5300E5085392FE80F0E8A2E092AFE5A8E50C09
:102B6300242CF50CE50D3400F50D1509E50960037A
:102B7300022A607402120D17E0FAA3E0FB740A1232
:102B83000CE28510828511835392FE120DE47402C8
:102B9300120CE27F08020D9674F8120D2D74FE12CA
:102BA3000CFC120DDC8A828B83059290F763E07034
:102BB30019121603AA82AB83122106E97018121C9C
:102BC300371233D51220BD1220E65392FE90F763DD
:102BD3007401F0123729851082851183120DE47474
:102BE30002120CE27F01020D9674F7120D2D8A82F8
:102BF3008B83121F7EE9F5087900123FC7740365C2
:102C030008600C740165087003121C37121C7B7E6C
:102C1300F47F01123F63E9F8880970137A0A7B0095
:102C2300121D26EE24FF1EEF34FFFFEE4F70E474F7
:102C3300036508600E740165087005121BF28003BA
:102C4300121CE6E509700479018003F0790080170E
:102C530074F7120D2DE4F508F5097808120DEC123E
:102C63002C6F7402120CE27F02020D9674F2120DA5
:102C73002D74FE120CFC120DDC8A088B09ECFF7418
:102C830010120D17E0F50CA3E0F50D1222C08A8493
:102C93008B857E02121F7EE5844585600D7901AA2E
:102CA30084AB851223A6E9FE6004EEF98073E50880
:102CB300450960F6EFC3941550F0E50C450D702DF2
:102CC300858482858583A3E0FDEFFCAA08AB098593
:102CD3008482858583A3A3A3A3A3A3E0F9122F74FE
:102CE3008A088B09EA4509700879038034790280E0
:102CF30030750A01750B00780A120DECE584240285
:102D0300FCE5853400FDEA24030A0A0AEB3400FBE0
:102D1300124C247402120CE27901AA08AB09123294
:102D2300F2851082851183120DE47402120CE27F86
:102D330007020D9674F5120D2D74FE120CFC120D84
:102D4300DC74FD120CCCE9FF8A848B858C088D0919
:102D53001222C07E02EA4B600979001223A6E9FE23
:102D63006004EEF980378510828511837401F012B7
:102D73000D17EFF0E4F50AF50B780A120DEC780A5B
:102D8300120DEC7808120DECAC84AD857406120DAF
:102D930017AA82AB831230977406120CE2740312E3
:102DA3000CE2851082851183120DE47402120CE289
:102DB3007F04020D9674F8120D2D74FE120CFC1292
:102DC3000DDC74FF120CCCE9851082851183F0852C
:102DD300108485118574010592120E05123A8074D0
:102DE30001120CE27401120CE2022BD9EEC0E012C4
:102DF3003930D0E0FE2274F7120D2D74FE120CFC54
:102E0300120DDCE9FFEAFE8C848D8590F763E07098
:102E13000EEF24FB600924FB60057902022F37EFD4
:102E230024FE7003022ED4147003022EF024FE70CD
:102E330003022EC114607C147003022EFB14700372
:102E4300022F2314605F14702D7508000592E07043
:102E53002BEE7012A38584828585830592120BDA8B
:102E63001238F2022F3574016E700BA3AA84AB855E
:102E7300123913022F35750802022F35640170F6DB
:102E8300EE7012A38584828585830592120BDA1274
:102E930036EA022F3574016E70DCA3AA84AB851267
:102EA300370A022F35AA84AB85EEF91227EFE9F52D
:102EB30008807FAA84AB85EEF912366D80F0740129
:102EC3006E6003EE70B0AA84AB85EEF912361480FF
:102ED300DD74036E7009AA84AB8512345480CF74F9
:102EE300026E7092AA84AB851234E380C1AA84ABCC
:102EF30085EEF912355E80B674016E6003022E7999
:102F03007508047509007808120DEC1233EEEAFC1B
:102F1300EBFDAA84AB85124C247402120CE2800FE1
:102F230074016E6003022E791233F6E90592F0758F
:102F33000800A9088510828511835392FE120DE4BF
:102F4300022C65C082C0835392FE90F768E4F09030
:102F5300F769EAF0A3EBF01233D590F765EAF0A333
:102F6300EBF0121C72E990F764F060F6D083D08224
:102F73002274F1120D2D74FE120CFC120DDC890C5F
:102F83008A0E8B0F8C088D09790212282F8A0A8BDF
:102F93000BA80AA90BE8FEE9FFE84970077A007B52
:102FA30000023052740525088E828F83A3A3F08E0E
:102FB300828F83A3A3A3A3A3A882A983E0548045FC
:102FC3000CF090F764E08E828F83A3A3A3A3A3A343
:102FD300A3F090F764E004F060F88E828F83A3A3DC
:102FE300A3A3A3A385828485838590F7670592E0D5
:102FF30054BFFA0592E04A54F84509547785848210
:10300300858583F088828983E0C2E7F085080A75A5
:103013000B00780A120DECAC0EAD0FEE2408FAEF9C
:103023003400FB124C247402120CE2750A01780A74
:10303300120DEC90F765E0FCA3E0FDEE2404FAEF3B
:103043003400FB124C247402120CE2EEFAEFFB85FF
:103053001082851183120DE47402120CE27F0802C0
:103063000D9674F7120D2D790112282F8A088B09FA
:10307300A808A909E8FEE9FFE8496013EE24020A5B
:103083000AEF3400FB1219F4EEFAEFFB1231E27F80
:1030930002020D9674F1120D2D74FE120CFC120D2A
:1030A300DC74FE120CCC851082851183ECF0A3ED49
:1030B300F08A828B837413120D210592E0F508A325
:1030C300E0F5097415120D21E0F50EA3E0F50F7478
:1030D30017120D21E0F50CA3E0F50D850884850991
:1030E30085E4F07C0179011229988A0A8B0BAE0AD8
:1030F300AF0BEE4F70030231D8758400758500E085
:1031030064017015A3E0F91222C08A848B85E584DB
:103113004585700579020231DA8E828F83A3A3E09D
:1031230024FBF8850882850983F0880875090078EF
:1031330008120DECEE2408FCEF3400FD7402120DAE
:1031430017E0FAA3E0FB124C247402120CE2E584AC
:1031530045856027EE242AF582EF3400F583E08568
:103163008482858583A3A3A3F0EE242BF582EF3419
:1031730000F583E00592A3A3A3A3F0E50E450F603A
:103183001F7508015392FE7808120DECEE2404FC1F
:10319300EF3400FDAA0EAB0F124C247402120CE2A2
:1031A300E50C450D60178E828F835392FEA3A3A374
:1031B300A3A3A3E05407850C82850D83F08E828F31
:1031C300835392FEA3E0FA79011229318E828F8311
:1031D300E4F0F9800279047402120CE202305274B2
:1031E300F5120D2D74FE120CFC120DDC74FF120C83
:1031F300CCEAFEEBFF8E848F850592A3A3A3A3A342
:10320300E0543FF508750A01750B000592780A1220
:103213000DEC90F765E0FCA3E0FDEE2404FAEF3437
:1032230000FB124BBE7402120CE28B0BEA450B70CF
:103233000C8E828F83E45392FEF00232DA0592E021
:10324300A2E640EDE508603CC394075031EE24024A
:10325300FAEF3400FBE508C333F874C628F5847429
:10326300F93400F585E0F582A3E0F5830592120DAC
:103273002BE9640170BB8E828F83740180BB743F22
:103283006508600974E02508C3941F50A485108263
:10329300851183AC82AD83EE2402FAEF3400FB1276
:1032A30023D5E9608C8E828F837401F090F769E0F7
:1032B300F8A3E0F9E849601F851082851183E0F9DE
:1032C300059290F769E0F582A3E0F5830592120D6C
:1032D3002BE960030232347401120CE285108285FB
:1032E3001183120DE47402120CE27F04020D967432
:1032F300F8120D2D74FE120CFC120DDCEAFEEBFF2E
:103303008E848F850592A3A3A3A3A3A3059290F70D
:10331300680592E054CFF80592E0480592F0EE2458
:10332300020A0AEF3400FB1217CAE970047900801D
:103333000279098E828F83E4F085108285118312CE
:103343000DE47402120CE27F01020D96C082C08369
:103353005392FE90F767E0F9022F6F5392FE2279A2
:10336300005392FE2274F7120D2D750801750900A2
:103373007808120DEC7C007D007A6B7BF7124D24EC
:103383007402120CE290F76DE0701B7808120DECDA
:103393007CD47DF97A6C7BF7124C247402120CE214
:1033A30090F76D7401F08003120CE27F02020D9618
:1033B300C082C0835392FE90F76DE0600875826C03
:1033C3007583F780067582D47583F9E0F9D083D0CD
:1033D3008222C082C0835392FE90F76DE060067A2A
:1033E3006C7BF780047AD47BF980E27AD67BF9533D
:1033F30092FE2279025392FE2274F7120D2D790068
:1034030090F76DE0702175080189097808120DECB9
:10341300EAFCEBFD7A6C7BF7124C247402120CE28B
:1034230090F76D7401F0F9808274F7120D2D750811
:10343300017509007808120DECEAFCEBFD7A6B7B51
:10344300F7124C2474020233AB7A9A7BF95392FE3F
:103453002274F7120D2D74FE120CFC120DDC8A84FB
:103463008B85858482858583A3A3A3A3A3E0F92405
:10347300FD600724FE60031470047D0180027D0358
:10348300858482858583A3A3A3A3E0FC85848285A9
:103493008583A3A3E0FAA3E0FB122F748A088B09A8
:1034A300A808A909E8FEE9FFE849602F7508017536
:1034B30009007808120DEC0592E0FCA3E0FDEE2470
:1034C300030A0A0AEF3400FB124C247402120CE2C2
:1034D3007901EEFAEFFB1232F28002790302365AD7
:1034E30074F7120D2D74FE120CFC120DDC74FD1218
:1034F3000CCC851082851183E4F08A828B83A3A38D
:10350300A3A3A3E0C0E07401120D17D0E0F0EA24F6
:1035130006F508EB3400F5097808120DEC8A848B64
:10352300850592120DFFEA2404F508EB3400F50932
:1035330005927808120DEC8A828B83A3A3E0FCA387
:10354300E0FD7406120D17AA82AB8312309774063E
:10355300120CE27403120CE202365A74F7120D2DA8
:1035630074FE120CFC120DDCE9FF8A848B857E004D
:1035730074046F7009121CE6121BF20236077405FD
:103583006F7005121C37807C74066F70320592E0F1
:10359300F91222C0EA4B70047902806A7508028E20
:1035A300097808120DECEA2403FCEB3400FD0592C4
:1035B300A3AA84AB85124C247402120CE2804574D6
:1035C300076F7009121EF6E90592F0803774086FD1
:1035D3007005121C7B802D74096F7005121CE68028
:1035E30023740A6F701C0592E0600E146007147058
:1035F300A7790280067901800279001220267900DA
:1036030080040E0EEEF98510828511835392FE809D
:103613004C74F7120D2D74FE120CFC120DDCE9FF35
:103623008A848B857E0274016F701F75080175098A
:10363300007808120DEC1233D5EAFCEBFDAA84AB3B
:1036430085124C24EE120CE28009EF70081233FC51
:10365300E960021E1EEEF9851082851183120DE4C6
:103663007402120CE27F02020D9674F7120D2DE91B
:10367300FE8A828B83E0F9740E6E600479028011F6
:1036830074FF6960F71222C0EA4B60F01222AE7930
:103693000080D274F5120D2D74FE120CFC120DDC99
:1036A3008A848B8590F76E7808120BBCE508450970
:1036B300450A450B700C90F9DA120BDA90F76E128B
:1036C3000BE690F772E584F0A3E585F0121C72E92E
:1036D30090F774F0851082851183120DE474021241
:1036E3000CE27F04020D9674F5120D2D8A088B09E6
:1036F3008C0A8D0BEA4509450A450B600890F76E65
:103703007808120BCB80DB74F8120D2DEAF8EBF975
:10371300E849600D90F76E120BDA88828983120BE9
:10372300E67F01020D9674F7120D2D74FE120CFC48
:10373300120DDC74EC120CCC121F7EE9FF7E061214
:10374300344C7401120D17EAF0A3EBF07408120D58
:10375300177403120D21E5820592F0A3E583F0743B
:1037630005120D1774080592F0EE120D177403F08D
:103773007904740A120D17AC82AD837A6E7BF7124B
:10378300277F7408120D177401F090F774E0C0E0FE
:103793007409120D17D0E0F0740E120D177402F0B5
:1037A3001233F6740F120D17E9F07401120D17ACF2
:1037B30082AD837A037902122DF9EE120D17740389
:1037C300F07408120D177403120D21E5820592F0AF
:1037D300A3E583F08510828511837401120D21E521
:1037E30082F0A3E583F074036F600B74016F7003C1
:1037F300121C37121C7B121D7474036F600D74014D
:103803006F7005121BF28003121CE67401120D1770
:10381300AC82AD837A027902122DF9E970527408F1
:10382300120D17E0547FF87401686004EE6870406D
:103833007508047509007808120DEC740C120D1745
:10384300AC82AD837412120D17AA82AB83124C247F
:103853007402120CE2120BDA1238F285108285110F
:1038630083AA82AB8312342C90F774E004F07E00B9
:10387300EEF97414120CE2851082851183120DE4A3
:103883007402120CE27F02020D9674F8120D2D7E63
:10389300007D017C0090F774E0F9122613E97004AF
:1038A300121EE00EEEF902372474F5120D2D90F777
:1038B300757808120BBCE5084509450A450B700CE1
:1038C30090F9DE120BDA90F775120BE6121C72E90F
:1038D30090F77DF060F67508027509007808120DFF
:1038E300EC7C007D007A7A7BF7124D240240EF7462
:1038F300F5120D2D8A088B098C0A8D0BEA450945B3
:103903000A450B600890F7757808120BCB0240F458
:1039130074F8120D2DEAF8EBF9E849600D90F7758C
:10392300120BDA88828983120BE6023F5E74F5126A
:103933000D2D74FE120CFC120DDC74F5120CCC89E7
:10394300081222C08A0A8B0BAE0AAF0BEE4F600639
:1039530074FF650870057902023A7B7401120D1732
:103963007402F090F77DE0C0E07402120D17D0E00E
:10397300F08E828F83A3A3A3A3A3E0C0E0740312FA
:103983000D17D0E0F0750A01750B00780A120DECE3
:10399300EE2402FCEF3400FD7402120D17AA82AB71
:1039A30083124C247402120CE285108485118574F1
:1039B30004120D17E584F0A3E585F07401120D21BF
:1039C3007406120D17E584F0A3E585F07408120D53
:1039D300177403F07409120D177402F07404120DB6
:1039E30017AC82AD837A037902122DF975090A1295
:1039F3001F7EE9F50A7409120D177402F07406129A
:103A03000D17E584F0A3E585F07404120D17E4F0B7
:103A1300A3F0800215097403650A600C7401650A3A
:103A23007003121C37121C7B121D747403650A6029
:103A33000E7401650A7005121BF28003121CE674F2
:103A430004120D17AC82AD837A027902122DF9E9C3
:103A530070167401120D17E0547F6402700A740328
:103A6300120D17E0F5098007E50970A8750901EE45
:103A7300FAEFFB1222AEA909740B0240E374F512AC
:103A83000D2D74FE120CFC120DDC74EF120CCC8A9B
:103A9300088B091221BA8A0A8B0BAE0AAF0BEE4FC1
:103AA3007003023C57790112248CE9700AEEFAEF95
:103AB300FB1222AE023C57851084851185741E12B9
:103AC3000D177401120BFF85108485118504120DE7
:103AD30017E584F0A3E585F07408120D2174031231
:103AE3000D17E584F0A3E585F07405120D1774092D
:103AF300F07406120D177402F07904740A120D178C
:103B0300AC82AD837A757BF712277F8E828F83A376
:103B1300A3A3A3A3E0C0E0740E120D17D0E0F090AE
:103B2300F77DE0C0E07409120D17D0E0F012334FB7
:103B3300740F120D17E9F07408120D177401F012C7
:103B430033F67410120D17E9F07401120D17AC82DD
:103B5300AD837A037902122DF9E9F50A600CEEFAC6
:103B6300EFFB1222AEA90A023C59121F7EE9F50AA5
:103B73007406120D177402F07403120D17E584F026
:103B8300A3E585F08E848F850592A3A37401120D9E
:103B930017E5840592F0A3E585F07403650A600CCC
:103BA3007401650A7003121C37121C7B121D747496
:103BB30003650A600E7401650A7005121BF2800327
:103BC300121CE67401120D17AC82AD837A027902DE
:103BD300122DF9E9705E7408120D17E0547FF87422
:103BE30001686010740368600BEEFAEFFB1222AEFB
:103BF300790580628E828F837402F0740A120D1726
:103C0300E08E828F83A3A3A3A3A3A3F08E828F83CB
:103C1300A3A3A3A3A3A3A3E0850882850983F08EAE
:103C2300828F83A3740B120D210592E06440700F01
:103C33007401800DEEFAEFFB1222AE790180177446
:103C4300030592F090F77DE004F0E070037401F057
:103C530079008002790374110240E374F1120D2D8F
:103C630074FE120CFC120DDC74F8120CCC8A088B57
:103C7300098A828B83E024FBF8E434FFF9C3E894D8
:103C830009E99400A2D265D033402F1233F6E9F844
:103C9300E508240EF582E5093400F583E068601A2F
:103CA30079027408120CE2851082851183120DE4E7
:103CB3007402120CE27F08020D967904E9120D17C3
:103CC300AC82AD83E5082408FAE5093400FB12272A
:103CD3001E059290F775780C120BBC0592780C12A6
:103CE300031E70BCE508240CF582E5093400F58356
:103CF300E0FE850882850983A3A385820C85830D55
:103D0300F9AA0CAB0D12232D8A0A8B0BA80AA90B57
:103D130088848985E8497003023DC0851082851136
:103D2300837481F0850882850983A3A3A3A3A3A336
:103D3300A3E0C0E07401120D17D0E0F00592A3A335
:103D4300A3A3A3E0C0E07402120D17D0E00592F024
:103D530012334F7403120D17E9F085088285098326
:103D6300A3A3A3A3E05407F87403C398FD7C0485BD
:103D73001082851183AA82AB837902122F748A0879
:103D83008B09A808A909E8FEE9FFE849602A750834
:103D9300017509007808120DECAC0CAD0DEE24038F
:103DA3000A0A0AEF3400FB124C247402120CE27963
:103DB30000EEFAEFFB1232F27901023CA590F7799B
:103DC300E07003023CA31221BA8A848B85E5844503
:103DD3008560E5750A01750B00780A120DECAC0CD1
:103DE300AD0DE58424020A0AE5853400FB124C2458
:103DF3007402120CE2AA84AB85790212248CE97056
:103E030009AA84AB851222AE80AE90F77CE06402EF
:103E130060EFE0F50A7401250AF0858482858583C5
:103E2300A3A3A3A3A3A3A3E0C0E0747A250AF58206
:103E330074F73400F583D0E0F0EE858482858583C2
:103E4300A3A3A3A3A3A3F074020592F085848285A0
:103E530085830592A3A882A983E508240DF582E54D
:103E6300093400F583E06440888289837004740117
:103E730080027403F0858482858583A3A3A3A3A30F
:103E8300E0C0E07402120D17D0E0F012334F740358
:103E9300120D17E9F08510828511837481F085086E
:103EA30082850983A3A3A3A3A3A3A3E0C0E0740112
:103EB300120D17D0E0F0850882850983A3A3A3A37D
:103EC300E05407F87403C398FD7C048510828511C0
:103ED30083AA82AB837902122F748A088B09A808FC
:103EE300A909E8FEE9FFE849603075080175090092
:103EF3007808120DECAC0CAD0DEE24030A0A0AEFA0
:103F03003400FB124C247402120CE27900EEFAEF37
:103F1300FB1232F2E97003023DBB023E0474F81255
:103F23000D2D74FE120CFC120DDC8A828B837D0135
:103F33007C00059290F77DE0F9122613E9700712D1
:103F43001EE079018007AA82AB83123FDF851082CE
:103F5300851183120DE47402120CE27F01020D96A7
:103F630074F8120D2D74FE120CFC120DDC7900A2F4
:103F7300AFE433F8C2AF90F77CE06036E014F0E8CA
:103F8300A2E092AFE5A890F779E4F090F77AE0F930
:103F93007800059290F77CE0FAE8C39A501B85827B
:103FA30084858385A3E00592F008858482858583D3
:103FB30080E0E8A2E092AFE5A885108285118353E3
:103FC30092FE808FC082C083E9700474018001E493
:103FD3005392FE90F779F0D083D0822274F5120DBC
:103FE3002D74FE120CFC120DDC74FD120CCC8A82B3
:103FF3008B838582848583850592A3A3A3A3A3A32F
:104003000592E024FBF8E434FFF97408687001E9D1
:10401300700774010592F0800C0592E01460061499
:1040230060090240D1123C5E0240D17E0885828441
:10403300858385A3A38584088585098582848583F3
:1040430085A3A3A3A3A3A3A3A3E0F9AA08AB09127F
:104053002692EA4B60051222AE7E008510848511FC
:104063008574820592F00592A3A3A3A3A3A3A3E05F
:10407300C0E07401120D17D0E0F07402120D17EEB8
:10408300F07D037C03851082851183AA82AB83793B
:1040930002122F748A0A8B0BA80AA90BE8FEE9FF08
:1040A300E849602A750A01750B00780A120DECAC19
:1040B30008AD09EE24030A0A0AEF3400FB124C246C
:1040C3007402120CE27900EEFAEFFB1232F279007D
:1040D3007403120CE28510828511835392FE8009CA
:1040E300120CE2851082851183120DE47402120C06
:1040F300E27F04020D96C082C083121C72E990F71E
:104103007EF0D083D0822274F7120D2D74FE120C30
:10411300FC120DDC8A848B857D017C0090F77EE0A8
:10412300F9122613E97007121EE07901802E750833
:10413300017509007808120DEC1233D5EAFCEBFD8A
:104143000592A3AA84AB85124BBE7402120CE28BB8
:1041530009EA450970047900800279028510828595
:104163001183120DE47402120CE27F02020D96C059
:1041730082C083121C72E990F77FF0D083D0822231
:10418300851082851183120DE47402120CE27F0202
:10419300020D9674F7120D2D74FE120CFC120DDC39
:1041A3008A848B857D017C0090F77FE0F9122613CA
:1041B300E97007121EE07901807485848285858306
:1041C300A3A3A3A3A3A3AA82AB83E06401705D7D31
:1041D300030592E024FBFC7901122F748A088B09F2
:1041E300A808A909E8FEE9FFE849604075080175D8
:1041F30009007808120DECE5842402FCE5853400FF
:10420300FDEE24030A0A0AEF3400FB124C24740265
:10421300120CE28E828F83A3A3A3A3A3A3A3A3E081
:10422300D2E7F07900EEFAEFFB1232F279000241A5
:10423300835392FE2279005392FE22C082C083747C
:10424300FF120CCC7AA87BF7122BECE96009639080
:10425300017A007B00801D851082851183AC82ADBD
:10426300837A807BF790F7A8E0F9122D37E970E79E
:104273007A807BF77401120CE2D083D0822274F52A
:10428300120D2D74FE120CFC120DDC8A848B85E951
:10429300FE7B01858482858583A3E0FA85848285FC
:1042A3008583A3A3E0F912433AE9FF60758584820D
:1042B300858583A3A3A3A385820A85830BF0802D21
:1042C300850A82850B83E0F5087509007808120DCD
:1042D300EC7CE27DF97A147BF6124D8D7402120C9C
:1042E300E27A147BF6790012134F639002EFF97AA6
:1042F300A97BF7122DB8E970C77AF57BF97900121B
:10430300134FEEFCAA84AB8590F7A9E0F9122C5366
:10431300E9FF7A057B00121D26E0F9122DEFEFF974
:1043230080027905851082851183120DE4740212CF
:104333000CE27F04020D9674F2120D2D890EEAFE33
:10434300EBFF1233B3E9F8C3950E40198F0AE82542
:104353000AFAE43400FBEE9AE49BC365D0334005CC
:10436300E82FF98027E50EC398401F8F08E8C3950F
:1043730008FA95E0FB8E08C3EA9508EB9400A2D2F5
:1043830065D0334005E8C39F80D879007F07020DCD
:104393009674F7120D2D74FE120CFC120DDC8C8436
:1043A3008D851233B3E9F5087509007808120DEC11
:1043B3007C037DFA7AAA7BF7124D8D7402120CE20C
:1043C3007AAA7BF7124E1E8A088B097808120DEC25
:1043D3007CAA7DF7E5842408FAE5853400FB124CBA
:1043E300247402120CE27AAA7BF7124E1EEA05929B
:1043F300A3A3A3A3A3A3A3F07A307BFA7902121396
:104403004F851082851183120DE47402120CE27F32
:1044130002020D9674F7120D2D74FE120CFC120D90
:10442300DC8C848D851233B3E9F5087509007808AF
:10443300120DEC7C437DFA7A147BF6124D8D7402D7
:10444300120CE27A147BF6124E1E8A088B09780846
:10445300120DEC7C147DF6E5842408FAE58534001E
:10446300FB124C247402120CE27A147BF6124E1ED9
:10447300EA0592A3A3A3A3A3A3A3F08510828511A6
:10448300830592120DE47402120CE27F02020D9670
:10449300C082C0838C828D835392FEA3A3A3A3A364
:1044A300A3A3A374D5F08C828D83A3A3A3A3A3A3F7
:1044B300A37401F0D083D0822280298027C0E0C07A
:1044C300D0C092E8C0E0E9C0E0EAC0E0EBC0E0ECB5
:1044D300C0E0EDC0E0EEC0E0C0F0E5A8FED2AF1250
:1044E30045B78025C0E0C0D0C092E8C0E0E9C0E095
:1044F300EAC0E0EBC0E0ECC0E0EDC0E0EEC0E0C03D
:10450300F0E5A8FED2AF124531EEA2E792AFD0F0AC
:10451300D0E0FED0E0FDD0E0FCD0E0FBD0E0FAD06C
:10452300E0F9D0E0F8D092D0D0D0E032808F74F8A8
:10453300120D2D74FE120CFC120DDC74FF120CCC48
:10454300E5A8F8C2AF059290F80EE0F582A3E0F576
:1045530083E8A2E792AFE5A8E5824583603885103A
:1045630084851185AA84AB850592120D2BE5A8508D
:1045730006C2AFC2E9800EF8C2AF539AFB90F80EA1
:10458300E4F0A3F0E8A2E792AFE5A88510828511D5
:1045930083E0F5C18003539AFB7401120CE285108A
:1045A300828511835392FE120DE47402120CE27F92
:1045B30001020D9674F8120D2D74FE120CFC120DEF
:1045C300DCE5C1F9E5A8F8C2AF059290F810E0F573
:1045D30082A3E0F583E8A2E792AFE5A8E5824583ED
:1045E300601A0592120D2B4013E5A8F8C2AF90F89C
:1045F30010E4F0A3F0E8A2E792AFE5A880A0C082A0
:10460300C08374FE120CCC5392FE90F80EE4F0A318
:10461300F090F810F0A3F043868043864053F1FEF8
:1046230053F2F753F2FB43F30843F30453F5BF5339
:10463300F5DF53F5F753C4BF43C40853C4FB43C466
:104643000253C4FE53C5DFE5C554E04409F5C575FF
:10465300C28343C480851082851183742CF0A374B4
:1046630001F0851082851183E024FFF8A3E034FF75
:10467300F9851082851183E8F0A3E9F0E84970E237
:10468300D2E9D2AA7402120CE28036C082C083C27D
:10469300F0A2AFE433FCC2AF5392FE90F80EE0F801
:1046A300A3E0F9E8497011EA4B600D90F80EEAF0C7
:1046B300A3EBF0439A04D2F0ECA2E092AFE5A8A2F8
:1046C300F0D083D08222C082C083C2F0A2AFE43391
:1046D300FCC2AF5392FE90F810E0F8A3E0F9E8496A
:1046E300700EEA4B600A90F810EAF0A3EBF0D2F0F8
:1046F30080C6C082C0835392FE90FA4B7412F0A31B
:1047030074F8F090FA4D7412F0A374F8F090FA4F25
:104713007444F0A374F8F090FA517444F0A374F85D
:10472300F01246017A627B4B1246C9D083D08222B3
:1047330074F6120D2D74FE120CFC120DDC8A828BA2
:1047430083ECFEEDFF740C120D210592E0F8A3E05B
:10475300F9740E120D21E0FCA3E0FD7410120D217B
:10476300E0F508A3E0F509E5A8F50AC2AF85828460
:10477300858385E0FAA3E0FBE50AA2E792AFE5A80B
:10478300EAC39EFEEB9FFFC39400A2D265D03350D1
:1047930008EE2432FEEF3400FF7431C39EFEE49F23
:1047A300FFC3EE9508EF9509A2D265D0335003C33A
:1047B3008060E82432FEE93400FFEA6E7002EB6F9A
:1047C3007004E8FAE9FB8C848D85E08A848B85F09C
:1047D3008C848D85A3AC84AD858A848B85A3AA84C0
:1047E300AB85E50824FFF508E50934FFF509C3E5C2
:1047F300089401E5099400A2D265D03350B4E5A82A
:10480300F8C2AFEA0592F0A3EBF0E8A2E792AFE5B6
:10481300A8D38510828511835392FE120DE474028E
:10482300120CE27F03020D9674F3120D2D74FE1227
:104833000CFC120DDC8C828D83740F120D210592FA
:10484300E0F8A3E0F97411120D21E0FEA3E0FF7478
:1048530013120D21E0F50AA3E0F50B7508007509A5
:1048630000E5A8F50CC2AF858284858385E0FCA3AF
:10487300E0FDE50CA2E792AFE5A8EA6C7002EB6DF0
:104883006010C3E50A9401E50B9400A2D265D0330E
:1048930050067A007B00806FE82432F50CE934007F
:1048A300F50DEC650C7003ED650D7004E8FCE9FD96
:1048B3008C848D85E08E848F85F08C848D85A3AC6C
:1048C30084AD858E848F85A3AE84AF85E5082401EE
:1048D300F508E5093400F509C3E508950AE50995E6
:1048E3000BA2D265D0335008EA6C7002EB6D70A84E
:1048F300E5A8F8C2AFEC0592F0A3EDF0E8A2E792C9
:10490300AFE5A8AA08AB098510828511835392FEEF
:10491300120DE47402120CE27F06020D96C082C0EF
:10492300838A828B83124E1EEAFCEBFDAA82AB8341
:104933001249C802472E74F5120D2D74FE120CFC99
:10494300120DDC8909E9C333FEE433FFEE9465EF0E
:104953009400C365D0334003C38057750800E960F2
:104963003C8A848B85439201E0F50A750B0005921E
:10497300780A120DEC7C467DFAE508C333F8E4337C
:10498300F9741428FA74F639FB124D8D7402120C63
:10499300E205080592A3E508C3950940C8EEFCEFBC
:1049A300FD7A147BF61249C85004D2F08002C2F09B
:1049B300A2F0851082851183120DE47402120CE2B9
:1049C3007F04020D9674F3120D2D74FE120CFC126B
:1049D3000DDC8A088B09ECFEEDFFEE4F7003024AF3
:1049E300A1EA45097003024AA1E5A8C2AFA2E79272
:1049F300AFE5A890FA4F059290FA51E0F8A3E0F9D9
:104A03000592E0C398F8A3E099F9C39400A2D26594
:104A1300D0335008E82432F8E93400F97431C398EC
:104A2300F50AE499F50BC3E50A9401E50B9400A29A
:104A3300D265D03340B3C3EE950AEF950B50048E85
:104A43000A8F0BE5A8C2AFA2E792AFE5A8780A12D6
:104A53000DEC7808120DEC750C44750DF8780C12FA
:104A63000DEC90FA51E0FCA3E0FD7A4F7BFA12477C
:104A7300337406120CE250077AF37B4A12468EE532
:104A830008250AF508E509350BF509C3EE950AFE75
:104A9300EF950BFFEE4F60030249ECD38001C38512
:104AA3001082851183024913120CE27F02020D96D4
:104AB30074F7120D2DE5A8C2AFA2E792AFE5A88C5B
:104AC300088D097808120DEC8A088B097808120DF5
:104AD300EC7508127509F87808120DEC7C4D7DFA17
:104AE30090FA4BE0FAA3E0FB12482B7406024AABA0
:104AF30074F7120D2DE5A8C2AFA2E792AFE5A87532
:104B030008017509007808120DEC8A088B097808EA
:104B1300120DEC7508447509F87808120DEC7C51F8
:104B23007DFA90FA4FE0FAA3E0FB12482B740612C9
:104B33000CE2A2AFE433FAC2AF90FA4FE0F8A3E07D
:104B4300F990FA51E0687003A3E0696004D2F08041
:104B530002C2F0EAA2E092AFE5A8A2F0024AAE7464
:104B6300F7120D2D74FF120CCCE985108285118389
:104B7300F0E5A8C2AFA2E792AFE5A87508017509F1
:104B8300007808120DEC7402120D178582088583D4
:104B9300097808120DEC7508127509F87808120DDA
:104BA300EC90FA4DE0FCA3E0FD7A4B7BFA1247331D
:104BB3007406120CE2D37401024AAB74F8120D2D81
:104BC30074FE120CFC120DDC8A848B85740A120DA0
:104BD30017E0F8A3E0800FA30592A3AC82AD83E8AE
:104BE30024FF18E934FFF9E849601F0592E0FA8CC5
:104BF300828D830592E06A059260DCE0F80592E01D
:104C0300FAE8C39AFA95E0FB80047A007B008510EA
:104C130082851183120DE47402120CE27F01020DEE
:104C23009674F8120D2D74FE120CFC120DDC8C829E
:104C33008D83740A120D210592E0F8A3E0F98A84AA
:104C43008B85800B5392FEE00592F0A30592A3E8B7
:104C5300FCE9FDEC24FF18ED34FFF9EC4D70E5851C
:104C630010828511835392FE120DE47402120CE23A
:104C73007F01020D9674F7120D2D74FE120CFC12B7
:104C83000DDC8C828D83740B120D210592E0F8A349
:104C9300E0F9EAFCEBFD8A088B09C3EA9582EB9500
:104CA300834046E58228FEE58339FFC3EE9508EF8E
:104CB30095094035EA28FAEB39FB8E828F83124D32
:104CC30015602BE58224FFF582E58334FFF583EA43
:104CD30024FF1AEB34FFFB124D0A80E2124D0A0542
:104CE30092A30592A3AA84AB85124D1570EEECFA3C
:104CF300EDFB8510828511830592120DE474021277
:104D03000CE27F02020D960592E08A848B85059260
:104D1300F022E8FEE9FFEE24FF18EF34FFF9EE4F2F
:104D23002274F8120D2D7408120D17E0F8A3E0F9A0
:104D33008A828B838003ECF0A3E8FEE9FFEE24FF75
:104D430018EF34FFF9EE4F70ED7F01020D9674F802
:104D5300120D2D74FE120CFC120DDC8A828B831251
:104D63004E16E90592F08A828B830592124E160540
:104D730092A38A828B83E5840592124E0A120DE474
:104D83007402120CE27F01020D9674F7120D2D745A
:104D9300FE120CFC120DDC74FC120CCC7402120D0E
:104DA30017EAF0A3EBF0ECFAEDFB740F120D21857B
:104DB3001082851183E584124E0A85820885830952
:104DC3007808120DEC7404120D1785820885830987
:104DD3007808120DEC7C517D4D1253937404120C20
:104DE300E27402120D17124E16E40592F0740412C7
:104DF3000CE28510828511830592120DE474021270
:104E03000CE27F02020D96F0A3E585F08510828502
:104E1300118322E0F584A3E0F58522C082C0838A52
:104E2300828B838001A35392FEE070F9E582C39ADB
:104E3300FAE5839BFBD083D0822274F1120D2D748B
:104E4300FE120CFC120DDC74FD120CCC7402120D5C
:104E530017E9F08A088B098C0A8D0B7416120D174B
:104E6300E0FEA3E0FF851082851183E4F0A3F08EBA
:104E7300828F83A3AA82AB8390FA77780C120BBC40
:104E83007808790C1204BC70188E828F83746912AF
:104E9300536F746EF0A37466F0A30A0AAB830253D4
:104EA30007780879081204BC60118E828F83746EB0
:104EB30012536F7461F0A3746E80DD90FA7B780CEB
:104EC300120BBC7808790C1204E85003024F6E9061
:104ED300FA7F780C120BBC7808790C1204BC6003BF
:104EE300024FC87418120D17E0700302500A8510A0
:104EF300828511837414120D210592E0F8A3E0F961
:104F0300C30592125349502C851082851183C3E047
:104F130094FCA3E094FFA2D265D03340177402122D
:104F23000D17E4F012531F7414120D17C3E098F019
:104F3300A3E099F07414120D171253657419120D2E
:104F430017E070030250077418120D17E40250099A
:104F530090FA83780C120BBC7808790C12093F8500
:104F63001082851183E0240A125EE590FA87780C9B
:104F7300120BBC7808790C1204E840D490FA8B78B1
:104F83000C120BBC7808790C1204E84003024EE6BD
:104F930090FA8B780C120BBC7808790C12093F85B8
:104FA3001082851183125EE280D290FA83780C120C
:104FB3000BBC7808790C120583851082851183E078
:104FC30024F612536890FA8F780C120BBC78087988
:104FD3000C12053740D490FA7B780C120BBC78087E
:104FE300790C1205374003024EE690FA8B780C12C7
:104FF3000BBC7808790C1205838510828511831206
:10500300536580D27401F07402120D17E060077AC1
:10501300007B00025111125354507E8E828F837491
:1050230030F0EAFEEBFF7414120D17E0FCA3E0FD71
:10503300EC4D70087419120D17E0600B8E828F838C
:10504300742EF0A30EAF837A007B0080118E828FC3
:1050530083743012538C7414120D17125365EA249F
:10506300FF1AEB34FFFB85108285118312533D50E9
:105073000B7414120D17125E134970D185108285BB
:10508300118374FFC39CF874FF9DF9C312534950F5
:105093000302521C7A0102501412531FC3E498FAFC
:1050A300E499FB806985080C85090D850A0E850B3B
:1050B3000F780C1203D1AC0CE50D3395E0F50EF52A
:1050C3000F780C1203597808790C12070390FA8BA6
:1050D300780C120BBC7808790C120583EC125386FA
:1050E300EAF8EBF9E824010AE93400FBE849701E09
:1050F3007414120D17125E134970087419120D17E8
:10510300E0600B8E828F83742EF0A30EAF83741432
:10511300120D1712533D508D90FA93780C120BBC5D
:105123007808790C1204E8400302521C7C01EE2437
:10513300FFF584EF34FFF5857416120D17125E0325
:10514300439201E0642E6010E02CF0643A7007741F
:1051530030F07C0180027C00A884A985E824FFF557
:1051630084E934FFF585C3EA98EB9940D3ECA2E0D8
:10517300400302521C7402120D170592E060598E0F
:10518300848F858010E00592F0E58424FFF584E5A3
:105193008534FFF585C3EA9584EB9585502CE5842A
:1051A30024FFF8E58534FFF9888289835392FEE072
:1051B300642E70D1E58424FEF582E58534FFF58302
:1051C300E00592F08884898580BF851082851183EC
:1051D3005392FE125EE280318E828F83A3AE82AF42
:1051E300838E848F858019E58424FFF582E58534D9
:1051F300FFF5835392FEE00592F0858284858385D3
:10520300C3EA9584EB958540DE7416120D1753920D
:10521300FE125E2974310592F07418120D17539221
:10522300FEE07005801A1EAF83EE24FFF582EF3493
:10523300FFF583E0643060EEE0642E70031EAF83FD
:105243007402120D17E07003025303125388A385EF
:1052530083851253548E828F835014742DF00EAFB6
:1052630085851082851183125E48125379800674F6
:105273002BF00EAF857C007D00EE240AFEEF340098
:10528300FFEC24010CED3400FD12532F120C49EAFC
:1052930012538612532F120C4912537A85108285AA
:1052A3001183E04970DBC3EC9402ED125DA240D19F
:1052B300ECFAEDFBC3E49CF8E49DF9EE28F582EFEC
:1052C30039F583E0C0E0C3E49AF8E49BF9EE28F8EB
:1052D300EF39F9E82CF8E93DF9E824F5F582E934EA
:1052E300FFF583D0E0F0EC24FF1CED34FFFDC3ECAD
:1052F3009401ED125DA250BCEE24F6FEEF34FFFFE5
:10530300EEFAEFFB7403120CE2851082851183120F
:105313000DE47402120CE27F08020D96851082855B
:10532300118312532922E0F8A3E0F9228510828524
:1053330011831253297A0A7B0022C3E09AA3E09BCC
:10534300A2D265D03322E098A3E099A2D265D033EC
:1053530022851082851183C3A3E09400A2D265D075
:105363003322E024FFF0A3E034FFF022F0EAFEEB67
:10537300FF8E828F8322F9851082851183E8F0A343
:10538300E9F02224308E828F83F0A3AE82AF832292
:1053930074F1120D2D74FE120CFC120DDC74B2129A
:1053A3000CCC851082851183EAF0A3EBF0741612FE
:1053B3000D17ECF0A3EDF0740D120D17E4F0A380BC
:1053C30022745F120D17125E037404120D17E0F9B5
:1053D3007416120D21125DAA120D2B740D120D17E6
:1053E300125DE5F0125EA9120D17E80592F074251F
:1053F300686010E070CB740D120D17125E03744ECB
:10540300025309125E6D64257011125DBA745F1246
:105413000D170592125E03792580B5740C120D17D2
:10542300E40592F0740B120D17E4F0740A120D17D1
:10543300E4F07405120D17E4F0741C120D177402D6
:10544300120D21125D8A80177405120D170592E063
:10545300700A7405120D17EA5392FEF012537A85FF
:105463001084851185439201125E65FA24E060D8A9
:1054730024FD601924F860DA24FE600624FD60111F
:105483008013740A120D170592E00480CE740B800A
:10549300F3740C80EFE0642A706F7461120D1705CA
:1054A30092125E73FAA3E0FB8A828B830592E0FC7F
:1054B300A3E0FD7408120D17ECF0A3EDF08A828BC4
:1054C30083A3A3C082C0837461120D17125E29D017
:1054D30083D082125D8A7408120D17C3059212538A
:1054E3005B50217408120D17125E03C3E49AFAE4A9
:1054F3009BFB7408120D17EAF0A3EBF0740A120D6C
:1055030017E004F012537A80557408120D17E4055E
:1055130092F0A3F0803A7408120D170592125E13ED
:1055230075F00AA4F8AAF075F00AE9A42AF9E508C7
:1055330028F8E439F9E824D0F8E934FFF9740812BB
:105543000D171253808510848511850592125DC055
:105553008510828511835392FE125E9440B8740ABB
:10556300120D175392FEE06007740C120D17E4F04E
:10557300125E6D642E7077125DBA85108285118379
:105583000592125E73642A70317461120D170592CD
:10559300125E86858284858385E0FEA3E0FF059203
:1055A300A3A3C082C0837461120D17125E29D08336
:1055B300D082125D8A125DBA80387E007F0085102A
:1055C300828511830592125E945027EE75F00AA42A
:1055D300FEA8F075F00AEFA428FFE5082EF8E43FD3
:1055E300F9E824D0FEE934FFFF125DBA80D07EFFD4
:1055F3007FFF7A00851084851185125E6524B4606F
:105603000824E4600524FC700D0A8510828511834B
:10561300E80592125381125EA9120D17E80592F064
:105623007003025C2324BB7003025AE824FE700358
:10563300025ACA24EF70030257EC24F57003025692
:10564300E4147003025899147003025AE8147003A7
:10565300025AE6147003025ACA24FE7003025899D0
:1056630024FB60241470030257DC1470030257EC0C
:1056730024FD700302572824FE70030257EC24FD17
:1056830070030257EC025C2F7461120D21125E2D20
:10569300740D5039120D17E0FCA3E0FD3395E0FEC5
:1056A300125D80EC0592F0A3EDF0A3EEF0A3F0748D
:1056B30061120D17125EA1C082C0837461120D17AF
:1056C300125E29D083D082125D8A0253E7120D172E
:1056D300125DFCF582A3E0F583E80592F0A3E9806F
:1056E300CD7461120D17125E860592E0C0E0741C42
:1056F300120D17D0E0F07461120D17125EA1C08273
:10570300C0837461120D17125E29D083D082125D9B
:105713008A741D120D177410120D21E582F0A3E592
:1057230083F0025C477461120D21125E5B125325F4
:105733000592A3A3C084C0857461120D17125E275E
:10574300D083D082125D8A7402120D17E80592127B
:105753005381E849700C7402120D177464F0A3743A
:10576300FAF0125DA050047E107F277406120D1705
:10577300E4F0A380087406120D17125DE5F07402BD
:10578300120D1712532588828983A37402120D21E7
:10579300125D8A888289830592E0600B7406120D7C
:1057A30017C3125E1840CE7402120D17125DD8F99A
:1057B3007410120D171253807406120D17125E48DF
:1057C300F97410120D17E028F8A3E039F9740212E6
:1057D3000D17E8F0A3E9025C46740B120D17E060A5
:1057E30008EE4F70047E017F007461120D21125D7B
:1057F30080125E277404120D17E064707041858473
:1058030082858583125E037412120D17125ED5A36F
:10581300A3C084C0857461120D17125E27D083D094
:1058230082125D8A5392FE90FA97120BDA74181261
:105833000D17120BE67405120D17E4F002591CEA5A
:10584300A2E08584828585835011120BDA741212CB
:105853000D17120BE60592A3A3800B125E037412BD
:10586300120D17125ED5A3A3C084C0857461120DF7
:1058730017125E27D083D082125D8A7404120D172B
:105883000592E0646F700590FA9B809EE0647570EA
:105893009390FA9F80947461120D21125E2D85847A
:1058A30082858583500B7808120BBC0592A3A380D5
:1058B30010E0F508A3E0F5093395E0F50AF50B05CB
:1058C30092A3A3C084C0857461120D17125E27D002
:1058D30083D082125D94120D1705927808120BCBB8
:1058E30090FA7F780812033340217405120D177460
:1058F3002DF07412120D177808120BBC7808120BD6
:10590300987412120D177808120BCB90FA9F120B92
:10591300DA7418120D17120BE6744D120D17740278
:10592300120D21125D8A7410120D21E582125D9809
:10593300120D1705927808120BBCE5084509450AB4
:10594300450B6009740F120D1774018006740F1252
:105953000D17E4F0EE4F7008E0A2E04003025A197D
:105963007402120D17125E41120D17125380741236
:10597300120D17780C120BBC7418120D177808123D
:105983000BBC780C7908120B2574532508F5827427
:10599300FA3509F583E0C0E07402120D17125E298F
:1059A300D0E00592F07412120D170592780C120BC9
:1059B300BC7418120D177808120BBC780C790812F6
:1059C3000B257412120D17780C120BCB7412120DD7
:1059D300177808120BBCE5084509450A450B70808A
:1059E300125DA05031740C120D17E060297405127A
:1059F3000D17E06004D2F08002C2F07408120D1794
:105A0300125DEE80117402120D17E80592125ECE3C
:105A1300120D17125E527402120D21439201E024FB
:105A2300FFF582A3E034FFF583A882A983744D12A6
:105A33000D177402120D21E0FAA3E0FBE582C39A6D
:105A4300FAE5839BFBC3EA9EEB125E2040B7740B1F
:105A5300120D170592E07003025C47740F120D17C5
:105A6300E0A2E04003025C477404120D17E064787F
:105A73006005E06458702F888289837404120D21B5
:105A83000592E00592F0E58224FF18E58334FFF9DF
:105A93007402120D17E8125ECE120D17125E2974EE
:105AA300300592025724E0646F6003025C4774027E
:105AB300120D17125E7364307003025C4774021296
:105AC3000D17E8059280CF7406120D177401F0A329
:105AD300E4F07404120D17E024FEF0EE4F700F7E15
:105AE300018012E4F07406120D17E4F0A3F0125DC6
:105AF300A050047E067F007461120D21125E5B7854
:105B03000C120BBC0592A3A3A3A3C084C08574612C
:105B1300120D17125E27D083D082125D94120D17D7
:105B23000592780C120BCB90FA7F7808120BBC7895
:105B33000C790812053750227405120D17742DF0D5
